{"abi":[{"type":"constructor","inputs":[{"name":"__openOracleTaskManager","type":"address","internalType":"contract OpenOracleTaskManager"}],"stateMutability":"nonpayable"},{"type":"function","name":"initialize","inputs":[{"name":"initialOwner","type":"address","internalType":"address"},{"name":"__taskType","type":"uint8","internalType":"uint8"},{"name":"__responderThreshold","type":"uint8","internalType":"uint8"},{"name":"__stakeThreshold","type":"uint96","internalType":"uint96"}],"outputs":[],"stateMutability":"nonpayable"},{"type":"function","name":"latestRoundData","inputs":[],"outputs":[{"name":"price","type":"uint256","internalType":"uint256"},{"name":"sd","type":"uint256","internalType":"uint256"},{"name":"timestamp","type":"uint256","internalType":"uint256"},{"name":"startBlock","type":"uint32","internalType":"uint32"},{"name":"endBlock","type":"uint32","internalType":"uint32"}],"stateMutability":"view"},{"type":"function","name":"owner","inputs":[],"outputs":[{"name":"","type":"address","internalType":"address"}],"stateMutability":"view"},{"type":"function","name":"renounceOwnership","inputs":[],"outputs":[],"stateMutability":"nonpayable"},{"type":"function","name":"requestNewReport","inputs":[],"outputs":[],"stateMutability":"nonpayable"},{"type":"function","name":"requestNewReportWithData","inputs":[{"name":"_taskData","type":"bytes","internalType":"bytes"}],"outputs":[],"stateMutability":"nonpayable"},{"type":"function","name":"saveLatestData","inputs":[{"name":"task","type":"tuple","internalType":"struct IOpenOracleTaskManager.Task","components":[{"name":"taskType","type":"uint8","internalType":"uint8"},{"name":"taskCreatedBlock","type":"uint32","internalType":"uint32"},{"name":"responderThreshold","type":"uint8","internalType":"uint8"},{"name":"stakeThreshold","type":"uint96","internalType":"uint96"},{"name":"creator","type":"address","internalType":"address payable"},{"name":"creationFee","type":"uint256","internalType":"uint256"}]},{"name":"response","type":"tuple","internalType":"struct IOpenOracleTaskManager.WeightedTaskResponse","components":[{"name":"referenceTaskIndex","type":"uint32","internalType":"uint32"},{"name":"result","type":"uint256","internalType":"uint256"},{"name":"sd","type":"uint256","internalType":"uint256"},{"name":"timestamp","type":"uint256","internalType":"uint256"}]},{"name":"metadata","type":"tuple","internalType":"struct IOpenOracleTaskManager.TaskResponseMetadata","components":[{"name":"taskResponsedBlock","type":"uint32","internalType":"uint32"}]}],"outputs":[],"stateMutability":"nonpayable"},{"type":"function","name":"setThresholds","inputs":[{"name":"responderThreshold","type":"uint8","internalType":"uint8"},{"name":"stakeThreshold","type":"uint96","internalType":"uint96"}],"outputs":[],"stateMutability":"nonpayable"},{"type":"function","name":"transferOwnership","inputs":[{"name":"newOwner","type":"address","internalType":"address"}],"outputs":[],"stateMutability":"nonpayable"},{"type":"event","name":"Initialized","inputs":[{"name":"version","type":"uint8","indexed":false,"internalType":"uint8"}],"anonymous":false},{"type":"event","name":"NewPriceReported","inputs":[{"name":"taskType","type":"uint8","indexed":true,"internalType":"uint8"},{"name":"referenceTaskIndex","type":"uint32","indexed":false,"internalType":"uint32"},{"name":"price","type":"uint256","indexed":false,"internalType":"uint256"},{"name":"sd","type":"uint256","indexed":false,"internalType":"uint256"},{"name":"timestamp","type":"uint256","indexed":false,"internalType":"uint256"},{"name":"createdBlock","type":"uint32","indexed":false,"internalType":"uint32"},{"name":"respondedBlock","type":"uint32","indexed":false,"internalType":"uint32"}],"anonymous":false},{"type":"event","name":"OwnershipTransferred","inputs":[{"name":"previousOwner","type":"address","indexed":true,"internalType":"address"},{"name":"newOwner","type":"address","indexed":true,"internalType":"address"}],"anonymous":false}],"bytecode":{"object":"0x60a060405234801561001057600080fd5b50604051610abb380380610abb83398101604081905261002f91610040565b6001600160a01b0316608052610070565b60006020828403121561005257600080fd5b81516001600160a01b038116811461006957600080fd5b9392505050565b608051610a22610099600039600081816101700152818161026301526102d40152610a226000f3fe608060405234801561001057600080fd5b50600436106100835760003560e01c8063142854f914610088578063715018a61461009d5780638da5cb5b146100a5578063cb748456146100ca578063d34f4fff146100d2578063e16541f2146100e5578063eea4b8be146100f8578063f2fde38b1461010b578063feaf968c1461011e575b600080fd5b61009b610096366004610726565b61015e565b005b61009b610204565b6100ad610218565b6040516001600160a01b0390911681526020015b60405180910390f35b61009b610227565b61009b6100e0366004610797565b6102c9565b61009b6100f336600461083d565b61045c565b61009b610106366004610891565b6105af565b61009b6101193660046108c4565b6105fc565b606754606854606954606b54606a546040805195865260208601949094529284019190915263ffffffff908116606084015216608082015260a0016100c1565b606554604051632ed3247f60e01b81527f00000000000000000000000000000000000000000000000000000000000000006001600160a01b031691632ed3247f916101ce9160ff808216926101008304909116916201000090046001600160601b031690889088906004016108e6565b600060405180830381600087803b1580156101e857600080fd5b505af11580156101fc573d6000803e3d6000fd5b505050505050565b61020c610675565b61021660006106d4565b565b6033546001600160a01b031690565b606554604051632191297d60e01b815260ff80831660048301526101008304166024820152620100009091046001600160601b031660448201527f00000000000000000000000000000000000000000000000000000000000000006001600160a01b031690632191297d90606401600060405180830381600087803b1580156102af57600080fd5b505af11580156102c3573d6000803e3d6000fd5b50505050565b336001600160a01b037f000000000000000000000000000000000000000000000000000000000000000016146103625760405162461bcd60e51b815260206004820152603360248201527f4f70656e4f7261636c655072696365466565643a2063616c6c6572206973206e60448201527237ba103a3432903a30b9b59036b0b730b3b2b960691b60648201526084015b60405180910390fd5b81606661036f8282610962565b50819050606a61037f828261099a565b50610392905060408401602085016109b4565b606b805463ffffffff191663ffffffff929092169190911790556103b960208401846109d1565b60ff167f6021b9402f9dfed8eba3786dd490809089dcf0e6b28a3eb96b84ec8cb5720b5b6103ea60208501856109b4565b84602001358560400135866060013588602001602081019061040c91906109b4565b61041960208901896109b4565b6040805163ffffffff9788168152602081019690965285019390935260608401919091528316608083015290911660a082015260c00160405180910390a2505050565b600054610100900460ff161580801561047c5750600054600160ff909116105b806104965750303b158015610496575060005460ff166001145b6104f95760405162461bcd60e51b815260206004820152602e60248201527f496e697469616c697a61626c653a20636f6e747261637420697320616c72656160448201526d191e481a5b9a5d1a585b1a5e995960921b6064820152608401610359565b6000805460ff19166001179055801561051c576000805461ff0019166101001790555b610525856106d4565b606580546001600160601b038416620100000262010000600160701b031960ff8781166101000261ffff1990941690891617929092179190911617905580156105a8576000805461ff0019169055604051600181527f7f26b83ff96e1f2b6a682f133852f6798a09c465da95921460cefb38474024989060200160405180910390a15b5050505050565b6105b7610675565b606580546001600160601b03909216620100000262010000600160701b031960ff9094166101000293909316610100600160701b031990921691909117919091179055565b610604610675565b6001600160a01b0381166106695760405162461bcd60e51b815260206004820152602660248201527f4f776e61626c653a206e6577206f776e657220697320746865207a65726f206160448201526564647265737360d01b6064820152608401610359565b610672816106d4565b50565b3361067e610218565b6001600160a01b0316146102165760405162461bcd60e51b815260206004820181905260248201527f4f776e61626c653a2063616c6c6572206973206e6f7420746865206f776e65726044820152606401610359565b603380546001600160a01b038381166001600160a01b0319831681179093556040519116919082907f8be0079c531659141344cd1fd0a4f28419497f9722a3daafe3b4186f6b6457e090600090a35050565b6000806020838503121561073957600080fd5b82356001600160401b038082111561075057600080fd5b818501915085601f83011261076457600080fd5b81358181111561077357600080fd5b86602082850101111561078557600080fd5b60209290920196919550909350505050565b60008060008385036101608112156107ae57600080fd5b60c08112156107bc57600080fd5b849350608060bf19820112156107d157600080fd5b60c085019250602061013f19820112156107ea57600080fd5b50610140840190509250925092565b80356001600160a01b038116811461081057600080fd5b919050565b803560ff8116811461081057600080fd5b80356001600160601b038116811461081057600080fd5b6000806000806080858703121561085357600080fd5b61085c856107f9565b935061086a60208601610815565b925061087860408601610815565b915061088660608601610826565b905092959194509250565b600080604083850312156108a457600080fd5b6108ad83610815565b91506108bb60208401610826565b90509250929050565b6000602082840312156108d657600080fd5b6108df826107f9565b9392505050565b60ff8681168252851660208201526001600160601b03841660408201526080606082018190528101829052818360a0830137600081830160a090810191909152601f909201601f19160101949350505050565b63ffffffff8116811461067257600080fd5b63ffffffff821663ffffffff198254161781555050565b813561096d81610939565b610977818361094b565b506020820135600182015560408201356002820155606082013560038201555050565b81356109a581610939565b6109af818361094b565b505050565b6000602082840312156109c657600080fd5b81356108df81610939565b6000602082840312156109e357600080fd5b6108df8261081556fea26469706673582212207b8ce8a44fe3f99a6ff46f89dc7593da5de43668144c2b5b54ded6d7fee0c50064736f6c634300080c0033","linkReferences":{}},"methodIdentifiers":{"initialize(address,uint8,uint8,uint96)":"e16541f2","latestRoundData()":"feaf968c","owner()":"8da5cb5b","renounceOwnership()":"715018a6","requestNewReport()":"cb748456","requestNewReportWithData(bytes)":"142854f9","saveLatestData((uint8,uint32,uint8,uint96,address,uint256),(uint32,uint256,uint256,uint256),(uint32))":"d34f4fff","setThresholds(uint8,uint96)":"eea4b8be","transferOwnership(address)":"f2fde38b"},"id":119}